{
  "_format": "hh-sol-artifact-1",
  "contractName": "DrawSomethingTxes",
  "sourceName": "contracts/DrawSomethingTxes.sol",
  "abi": [
    {
      "inputs": [],
      "stateMutability": "nonpayable",
      "type": "constructor"
    },
    {
      "anonymous": false,
      "inputs": [
        {
          "indexed": true,
          "internalType": "address",
          "name": "owner",
          "type": "address"
        },
        {
          "indexed": true,
          "internalType": "address",
          "name": "approved",
          "type": "address"
        },
        {
          "indexed": true,
          "internalType": "uint256",
          "name": "tokenId",
          "type": "uint256"
        }
      ],
      "name": "Approval",
      "type": "event"
    },
    {
      "anonymous": false,
      "inputs": [
        {
          "indexed": true,
          "internalType": "address",
          "name": "owner",
          "type": "address"
        },
        {
          "indexed": true,
          "internalType": "address",
          "name": "operator",
          "type": "address"
        },
        {
          "indexed": false,
          "internalType": "bool",
          "name": "approved",
          "type": "bool"
        }
      ],
      "name": "ApprovalForAll",
      "type": "event"
    },
    {
      "anonymous": false,
      "inputs": [
        {
          "indexed": true,
          "internalType": "address",
          "name": "previousOwner",
          "type": "address"
        },
        {
          "indexed": true,
          "internalType": "address",
          "name": "newOwner",
          "type": "address"
        }
      ],
      "name": "OwnershipTransferred",
      "type": "event"
    },
    {
      "anonymous": false,
      "inputs": [
        {
          "indexed": true,
          "internalType": "address",
          "name": "from",
          "type": "address"
        },
        {
          "indexed": true,
          "internalType": "address",
          "name": "to",
          "type": "address"
        },
        {
          "indexed": true,
          "internalType": "uint256",
          "name": "tokenId",
          "type": "uint256"
        }
      ],
      "name": "Transfer",
      "type": "event"
    },
    {
      "inputs": [],
      "name": "MAX_TOKENS",
      "outputs": [
        {
          "internalType": "uint256",
          "name": "",
          "type": "uint256"
        }
      ],
      "stateMutability": "view",
      "type": "function"
    },
    {
      "inputs": [
        {
          "internalType": "address",
          "name": "to",
          "type": "address"
        },
        {
          "internalType": "uint256",
          "name": "tokenId",
          "type": "uint256"
        }
      ],
      "name": "approve",
      "outputs": [],
      "stateMutability": "nonpayable",
      "type": "function"
    },
    {
      "inputs": [
        {
          "internalType": "address",
          "name": "owner",
          "type": "address"
        }
      ],
      "name": "balanceOf",
      "outputs": [
        {
          "internalType": "uint256",
          "name": "",
          "type": "uint256"
        }
      ],
      "stateMutability": "view",
      "type": "function"
    },
    {
      "inputs": [],
      "name": "baseURI",
      "outputs": [
        {
          "internalType": "string",
          "name": "",
          "type": "string"
        }
      ],
      "stateMutability": "view",
      "type": "function"
    },
    {
      "inputs": [
        {
          "internalType": "uint256",
          "name": "tokenId",
          "type": "uint256"
        }
      ],
      "name": "getApproved",
      "outputs": [
        {
          "internalType": "address",
          "name": "",
          "type": "address"
        }
      ],
      "stateMutability": "view",
      "type": "function"
    },
    {
      "inputs": [
        {
          "internalType": "address",
          "name": "owner",
          "type": "address"
        },
        {
          "internalType": "address",
          "name": "operator",
          "type": "address"
        }
      ],
      "name": "isApprovedForAll",
      "outputs": [
        {
          "internalType": "bool",
          "name": "",
          "type": "bool"
        }
      ],
      "stateMutability": "view",
      "type": "function"
    },
    {
      "inputs": [],
      "name": "mintToken",
      "outputs": [],
      "stateMutability": "nonpayable",
      "type": "function"
    },
    {
      "inputs": [],
      "name": "name",
      "outputs": [
        {
          "internalType": "string",
          "name": "",
          "type": "string"
        }
      ],
      "stateMutability": "view",
      "type": "function"
    },
    {
      "inputs": [],
      "name": "owner",
      "outputs": [
        {
          "internalType": "address",
          "name": "",
          "type": "address"
        }
      ],
      "stateMutability": "view",
      "type": "function"
    },
    {
      "inputs": [
        {
          "internalType": "uint256",
          "name": "tokenId",
          "type": "uint256"
        }
      ],
      "name": "ownerOf",
      "outputs": [
        {
          "internalType": "address",
          "name": "",
          "type": "address"
        }
      ],
      "stateMutability": "view",
      "type": "function"
    },
    {
      "inputs": [],
      "name": "renounceOwnership",
      "outputs": [],
      "stateMutability": "nonpayable",
      "type": "function"
    },
    {
      "inputs": [
        {
          "internalType": "address",
          "name": "from",
          "type": "address"
        },
        {
          "internalType": "address",
          "name": "to",
          "type": "address"
        },
        {
          "internalType": "uint256",
          "name": "tokenId",
          "type": "uint256"
        }
      ],
      "name": "safeTransferFrom",
      "outputs": [],
      "stateMutability": "nonpayable",
      "type": "function"
    },
    {
      "inputs": [
        {
          "internalType": "address",
          "name": "from",
          "type": "address"
        },
        {
          "internalType": "address",
          "name": "to",
          "type": "address"
        },
        {
          "internalType": "uint256",
          "name": "tokenId",
          "type": "uint256"
        },
        {
          "internalType": "bytes",
          "name": "_data",
          "type": "bytes"
        }
      ],
      "name": "safeTransferFrom",
      "outputs": [],
      "stateMutability": "nonpayable",
      "type": "function"
    },
    {
      "inputs": [
        {
          "internalType": "address",
          "name": "operator",
          "type": "address"
        },
        {
          "internalType": "bool",
          "name": "approved",
          "type": "bool"
        }
      ],
      "name": "setApprovalForAll",
      "outputs": [],
      "stateMutability": "nonpayable",
      "type": "function"
    },
    {
      "inputs": [
        {
          "internalType": "string",
          "name": "uri",
          "type": "string"
        }
      ],
      "name": "setBaseURI",
      "outputs": [],
      "stateMutability": "nonpayable",
      "type": "function"
    },
    {
      "inputs": [
        {
          "internalType": "bytes4",
          "name": "interfaceId",
          "type": "bytes4"
        }
      ],
      "name": "supportsInterface",
      "outputs": [
        {
          "internalType": "bool",
          "name": "",
          "type": "bool"
        }
      ],
      "stateMutability": "view",
      "type": "function"
    },
    {
      "inputs": [],
      "name": "symbol",
      "outputs": [
        {
          "internalType": "string",
          "name": "",
          "type": "string"
        }
      ],
      "stateMutability": "view",
      "type": "function"
    },
    {
      "inputs": [
        {
          "internalType": "uint256",
          "name": "index",
          "type": "uint256"
        }
      ],
      "name": "tokenByIndex",
      "outputs": [
        {
          "internalType": "uint256",
          "name": "",
          "type": "uint256"
        }
      ],
      "stateMutability": "view",
      "type": "function"
    },
    {
      "inputs": [
        {
          "internalType": "address",
          "name": "owner",
          "type": "address"
        },
        {
          "internalType": "uint256",
          "name": "index",
          "type": "uint256"
        }
      ],
      "name": "tokenOfOwnerByIndex",
      "outputs": [
        {
          "internalType": "uint256",
          "name": "",
          "type": "uint256"
        }
      ],
      "stateMutability": "view",
      "type": "function"
    },
    {
      "inputs": [
        {
          "internalType": "uint256",
          "name": "tokenId",
          "type": "uint256"
        }
      ],
      "name": "tokenURI",
      "outputs": [
        {
          "internalType": "string",
          "name": "",
          "type": "string"
        }
      ],
      "stateMutability": "view",
      "type": "function"
    },
    {
      "inputs": [],
      "name": "totalSupply",
      "outputs": [
        {
          "internalType": "uint256",
          "name": "",
          "type": "uint256"
        }
      ],
      "stateMutability": "view",
      "type": "function"
    },
    {
      "inputs": [
        {
          "internalType": "address",
          "name": "from",
          "type": "address"
        },
        {
          "internalType": "address",
          "name": "to",
          "type": "address"
        },
        {
          "internalType": "uint256",
          "name": "tokenId",
          "type": "uint256"
        }
      ],
      "name": "transferFrom",
      "outputs": [],
      "stateMutability": "nonpayable",
      "type": "function"
    },
    {
      "inputs": [
        {
          "internalType": "address",
          "name": "newOwner",
          "type": "address"
        }
      ],
      "name": "transferOwnership",
      "outputs": [],
      "stateMutability": "nonpayable",
      "type": "function"
    }
  ],
  "bytecode": "0x60806040523480156200001157600080fd5b506040518060400160405280601581526020017f647261772d736f6d657468696e672028747865732900000000000000000000008152506040518060400160405280600481526020017f4453545800000000000000000000000000000000000000000000000000000000815250816000908051906020019062000096929190620001a6565b508060019080519060200190620000af929190620001a6565b505050620000d2620000c6620000d860201b60201c565b620000e060201b60201c565b620002bb565b600033905090565b6000600a60009054906101000a900473ffffffffffffffffffffffffffffffffffffffff16905081600a60006101000a81548173ffffffffffffffffffffffffffffffffffffffff021916908373ffffffffffffffffffffffffffffffffffffffff1602179055508173ffffffffffffffffffffffffffffffffffffffff168173ffffffffffffffffffffffffffffffffffffffff167f8be0079c531659141344cd1fd0a4f28419497f9722a3daafe3b4186f6b6457e060405160405180910390a35050565b828054620001b49062000256565b90600052602060002090601f016020900481019282620001d8576000855562000224565b82601f10620001f357805160ff191683800117855562000224565b8280016001018555821562000224579182015b828111156200022357825182559160200191906001019062000206565b5b50905062000233919062000237565b5090565b5b808211156200025257600081600090555060010162000238565b5090565b600060028204905060018216806200026f57607f821691505b602082108114156200028657620002856200028c565b5b50919050565b7f4e487b7100000000000000000000000000000000000000000000000000000000600052602260045260246000fd5b6137a980620002cb6000396000f3fe608060405234801561001057600080fd5b506004361061014d5760003560e01c80636352211e116100c3578063a22cb4651161007c578063a22cb4651461038c578063b88d4fde146103a8578063c87b56dd146103c4578063e985e9c5146103f4578063f2fde38b14610424578063f47c84c5146104405761014d565b80636352211e146102c85780636c0360eb146102f857806370a0823114610316578063715018a6146103465780638da5cb5b1461035057806395d89b411461036e5761014d565b80632004ffd9116101155780632004ffd91461020a57806323b872dd146102145780632f745c591461023057806342842e0e146102605780634f6ccce71461027c57806355f804b3146102ac5761014d565b806301ffc9a71461015257806306fdde0314610182578063081812fc146101a0578063095ea7b3146101d057806318160ddd146101ec575b600080fd5b61016c60048036038101906101679190612625565b61045e565b6040516101799190612ae9565b60405180910390f35b61018a610470565b6040516101979190612b04565b60405180910390f35b6101ba60048036038101906101b591906126c8565b610502565b6040516101c79190612a82565b60405180910390f35b6101ea60048036038101906101e591906125e5565b610587565b005b6101f461069f565b6040516102019190612d86565b60405180910390f35b6102126106ac565b005b61022e600480360381019061022991906124cf565b610791565b005b61024a600480360381019061024591906125e5565b6107f1565b6040516102579190612d86565b60405180910390f35b61027a600480360381019061027591906124cf565b610896565b005b610296600480360381019061029191906126c8565b6108b6565b6040516102a39190612d86565b60405180910390f35b6102c660048036038101906102c1919061267f565b610927565b005b6102e260048036038101906102dd91906126c8565b6109bd565b6040516102ef9190612a82565b60405180910390f35b610300610a6f565b60405161030d9190612b04565b60405180910390f35b610330600480360381019061032b9190612462565b610afd565b60405161033d9190612d86565b60405180910390f35b61034e610bb5565b005b610358610c3d565b6040516103659190612a82565b60405180910390f35b610376610c67565b6040516103839190612b04565b60405180910390f35b6103a660048036038101906103a191906125a5565b610cf9565b005b6103c260048036038101906103bd9190612522565b610e7a565b005b6103de60048036038101906103d991906126c8565b610edc565b6040516103eb9190612b04565b60405180910390f35b61040e6004803603810190610409919061248f565b610f83565b60405161041b9190612ae9565b60405180910390f35b61043e60048036038101906104399190612462565b611017565b005b61044861110f565b6040516104559190612d86565b60405180910390f35b600061046982611114565b9050919050565b60606000805461047f90612fdc565b80601f01602080910402602001604051908101604052809291908181526020018280546104ab90612fdc565b80156104f85780601f106104cd576101008083540402835291602001916104f8565b820191906000526020600020905b8154815290600101906020018083116104db57829003601f168201915b5050505050905090565b600061050d8261118e565b61054c576040517f08c379a000000000000000000000000000000000000000000000000000000000815260040161054390612c86565b60405180910390fd5b6004600083815260200190815260200160002060009054906101000a900473ffffffffffffffffffffffffffffffffffffffff169050919050565b6000610592826109bd565b90508073ffffffffffffffffffffffffffffffffffffffff168373ffffffffffffffffffffffffffffffffffffffff161415610603576040517f08c379a00000000000000000000000000000000000000000000000000000000081526004016105fa90612d26565b60405180910390fd5b8073ffffffffffffffffffffffffffffffffffffffff166106226111fa565b73ffffffffffffffffffffffffffffffffffffffff16148061065157506106508161064b6111fa565b610f83565b5b610690576040517f08c379a000000000000000000000000000000000000000000000000000000000815260040161068790612c06565b60405180910390fd5b61069a8383611202565b505050565b6000600880549050905090565b6106b46111fa565b73ffffffffffffffffffffffffffffffffffffffff166106d2610c3d565b73ffffffffffffffffffffffffffffffffffffffff1614610728576040517f08c379a000000000000000000000000000000000000000000000000000000000815260040161071f90612ca6565b60405180910390fd5b6000600161073461069f565b61073e9190612e6b565b90506018811115610784576040517f08c379a000000000000000000000000000000000000000000000000000000000815260040161077b90612d06565b60405180910390fd5b61078e33826112bb565b50565b6107a261079c6111fa565b826112d9565b6107e1576040517f08c379a00000000000000000000000000000000000000000000000000000000081526004016107d890612d46565b60405180910390fd5b6107ec8383836113b7565b505050565b60006107fc83610afd565b821061083d576040517f08c379a000000000000000000000000000000000000000000000000000000000815260040161083490612b26565b60405180910390fd5b600660008473ffffffffffffffffffffffffffffffffffffffff1673ffffffffffffffffffffffffffffffffffffffff168152602001908152602001600020600083815260200190815260200160002054905092915050565b6108b183838360405180602001604052806000815250610e7a565b505050565b60006108c061069f565b8210610901576040517f08c379a00000000000000000000000000000000000000000000000000000000081526004016108f890612d66565b60405180910390fd5b6008828154811061091557610914613175565b5b90600052602060002001549050919050565b61092f6111fa565b73ffffffffffffffffffffffffffffffffffffffff1661094d610c3d565b73ffffffffffffffffffffffffffffffffffffffff16146109a3576040517f08c379a000000000000000000000000000000000000000000000000000000000815260040161099a90612ca6565b60405180910390fd5b80600b90805190602001906109b9929190612276565b5050565b6000806002600084815260200190815260200160002060009054906101000a900473ffffffffffffffffffffffffffffffffffffffff169050600073ffffffffffffffffffffffffffffffffffffffff168173ffffffffffffffffffffffffffffffffffffffff161415610a66576040517f08c379a0000000000000000000000000000000000000000000000000000000008152600401610a5d90612c46565b60405180910390fd5b80915050919050565b600b8054610a7c90612fdc565b80601f0160208091040260200160405190810160405280929190818152602001828054610aa890612fdc565b8015610af55780601f10610aca57610100808354040283529160200191610af5565b820191906000526020600020905b815481529060010190602001808311610ad857829003601f168201915b505050505081565b60008073ffffffffffffffffffffffffffffffffffffffff168273ffffffffffffffffffffffffffffffffffffffff161415610b6e576040517f08c379a0000000000000000000000000000000000000000000000000000000008152600401610b6590612c26565b60405180910390fd5b600360008373ffffffffffffffffffffffffffffffffffffffff1673ffffffffffffffffffffffffffffffffffffffff168152602001908152602001600020549050919050565b610bbd6111fa565b73ffffffffffffffffffffffffffffffffffffffff16610bdb610c3d565b73ffffffffffffffffffffffffffffffffffffffff1614610c31576040517f08c379a0000000000000000000000000000000000000000000000000000000008152600401610c2890612ca6565b60405180910390fd5b610c3b6000611613565b565b6000600a60009054906101000a900473ffffffffffffffffffffffffffffffffffffffff16905090565b606060018054610c7690612fdc565b80601f0160208091040260200160405190810160405280929190818152602001828054610ca290612fdc565b8015610cef5780601f10610cc457610100808354040283529160200191610cef565b820191906000526020600020905b815481529060010190602001808311610cd257829003601f168201915b5050505050905090565b610d016111fa565b73ffffffffffffffffffffffffffffffffffffffff168273ffffffffffffffffffffffffffffffffffffffff161415610d6f576040517f08c379a0000000000000000000000000000000000000000000000000000000008152600401610d6690612bc6565b60405180910390fd5b8060056000610d7c6111fa565b73ffffffffffffffffffffffffffffffffffffffff1673ffffffffffffffffffffffffffffffffffffffff16815260200190815260200160002060008473ffffffffffffffffffffffffffffffffffffffff1673ffffffffffffffffffffffffffffffffffffffff16815260200190815260200160002060006101000a81548160ff0219169083151502179055508173ffffffffffffffffffffffffffffffffffffffff16610e296111fa565b73ffffffffffffffffffffffffffffffffffffffff167f17307eab39ab6107e8899845ad3d59bd9653f200f220920489ca2b5937696c3183604051610e6e9190612ae9565b60405180910390a35050565b610e8b610e856111fa565b836112d9565b610eca576040517f08c379a0000000000000000000000000000000000000000000000000000000008152600401610ec190612d46565b60405180910390fd5b610ed6848484846116d9565b50505050565b6060610ee78261118e565b610f26576040517f08c379a0000000000000000000000000000000000000000000000000000000008152600401610f1d90612ce6565b60405180910390fd5b6000610f30611735565b90506000815111610f505760405180602001604052806000815250610f7b565b80610f5a846117c7565b604051602001610f6b929190612a5e565b6040516020818303038152906040525b915050919050565b6000600560008473ffffffffffffffffffffffffffffffffffffffff1673ffffffffffffffffffffffffffffffffffffffff16815260200190815260200160002060008373ffffffffffffffffffffffffffffffffffffffff1673ffffffffffffffffffffffffffffffffffffffff16815260200190815260200160002060009054906101000a900460ff16905092915050565b61101f6111fa565b73ffffffffffffffffffffffffffffffffffffffff1661103d610c3d565b73ffffffffffffffffffffffffffffffffffffffff1614611093576040517f08c379a000000000000000000000000000000000000000000000000000000000815260040161108a90612ca6565b60405180910390fd5b600073ffffffffffffffffffffffffffffffffffffffff168173ffffffffffffffffffffffffffffffffffffffff161415611103576040517f08c379a00000000000000000000000000000000000000000000000000000000081526004016110fa90612b66565b60405180910390fd5b61110c81611613565b50565b601881565b60007f780e9d63000000000000000000000000000000000000000000000000000000007bffffffffffffffffffffffffffffffffffffffffffffffffffffffff1916827bffffffffffffffffffffffffffffffffffffffffffffffffffffffff19161480611187575061118682611928565b5b9050919050565b60008073ffffffffffffffffffffffffffffffffffffffff166002600084815260200190815260200160002060009054906101000a900473ffffffffffffffffffffffffffffffffffffffff1673ffffffffffffffffffffffffffffffffffffffff1614159050919050565b600033905090565b816004600083815260200190815260200160002060006101000a81548173ffffffffffffffffffffffffffffffffffffffff021916908373ffffffffffffffffffffffffffffffffffffffff160217905550808273ffffffffffffffffffffffffffffffffffffffff16611275836109bd565b73ffffffffffffffffffffffffffffffffffffffff167f8c5be1e5ebec7d5bd14f71427d1e84f3dd0314c0f7b2291e5b200ac8c7c3b92560405160405180910390a45050565b6112d5828260405180602001604052806000815250611a0a565b5050565b60006112e48261118e565b611323576040517f08c379a000000000000000000000000000000000000000000000000000000000815260040161131a90612be6565b60405180910390fd5b600061132e836109bd565b90508073ffffffffffffffffffffffffffffffffffffffff168473ffffffffffffffffffffffffffffffffffffffff16148061139d57508373ffffffffffffffffffffffffffffffffffffffff1661138584610502565b73ffffffffffffffffffffffffffffffffffffffff16145b806113ae57506113ad8185610f83565b5b91505092915050565b8273ffffffffffffffffffffffffffffffffffffffff166113d7826109bd565b73ffffffffffffffffffffffffffffffffffffffff161461142d576040517f08c379a000000000000000000000000000000000000000000000000000000000815260040161142490612cc6565b60405180910390fd5b600073ffffffffffffffffffffffffffffffffffffffff168273ffffffffffffffffffffffffffffffffffffffff16141561149d576040517f08c379a000000000000000000000000000000000000000000000000000000000815260040161149490612ba6565b60405180910390fd5b6114a8838383611a65565b6114b3600082611202565b6001600360008573ffffffffffffffffffffffffffffffffffffffff1673ffffffffffffffffffffffffffffffffffffffff16815260200190815260200160002060008282546115039190612ef2565b925050819055506001600360008473ffffffffffffffffffffffffffffffffffffffff1673ffffffffffffffffffffffffffffffffffffffff168152602001908152602001600020600082825461155a9190612e6b565b92505081905550816002600083815260200190815260200160002060006101000a81548173ffffffffffffffffffffffffffffffffffffffff021916908373ffffffffffffffffffffffffffffffffffffffff160217905550808273ffffffffffffffffffffffffffffffffffffffff168473ffffffffffffffffffffffffffffffffffffffff167fddf252ad1be2c89b69c2b068fc378daa952ba7f163c4a11628f55a4df523b3ef60405160405180910390a4505050565b6000600a60009054906101000a900473ffffffffffffffffffffffffffffffffffffffff16905081600a60006101000a81548173ffffffffffffffffffffffffffffffffffffffff021916908373ffffffffffffffffffffffffffffffffffffffff1602179055508173ffffffffffffffffffffffffffffffffffffffff168173ffffffffffffffffffffffffffffffffffffffff167f8be0079c531659141344cd1fd0a4f28419497f9722a3daafe3b4186f6b6457e060405160405180910390a35050565b6116e48484846113b7565b6116f084848484611a75565b61172f576040517f08c379a000000000000000000000000000000000000000000000000000000000815260040161172690612b46565b60405180910390fd5b50505050565b6060600b805461174490612fdc565b80601f016020809104026020016040519081016040528092919081815260200182805461177090612fdc565b80156117bd5780601f10611792576101008083540402835291602001916117bd565b820191906000526020600020905b8154815290600101906020018083116117a057829003601f168201915b5050505050905090565b6060600082141561180f576040518060400160405280600181526020017f30000000000000000000000000000000000000000000000000000000000000008152509050611923565b600082905060005b6000821461184157808061182a9061303f565b915050600a8261183a9190612ec1565b9150611817565b60008167ffffffffffffffff81111561185d5761185c6131a4565b5b6040519080825280601f01601f19166020018201604052801561188f5781602001600182028036833780820191505090505b5090505b6000851461191c576001826118a89190612ef2565b9150600a856118b79190613088565b60306118c39190612e6b565b60f81b8183815181106118d9576118d8613175565b5b60200101907effffffffffffffffffffffffffffffffffffffffffffffffffffffffffffff1916908160001a905350600a856119159190612ec1565b9450611893565b8093505050505b919050565b60007f80ac58cd000000000000000000000000000000000000000000000000000000007bffffffffffffffffffffffffffffffffffffffffffffffffffffffff1916827bffffffffffffffffffffffffffffffffffffffffffffffffffffffff191614806119f357507f5b5e139f000000000000000000000000000000000000000000000000000000007bffffffffffffffffffffffffffffffffffffffffffffffffffffffff1916827bffffffffffffffffffffffffffffffffffffffffffffffffffffffff1916145b80611a035750611a0282611c0c565b5b9050919050565b611a148383611c76565b611a216000848484611a75565b611a60576040517f08c379a0000000000000000000000000000000000000000000000000000000008152600401611a5790612b46565b60405180910390fd5b505050565b611a70838383611e44565b505050565b6000611a968473ffffffffffffffffffffffffffffffffffffffff16611f58565b15611bff578373ffffffffffffffffffffffffffffffffffffffff1663150b7a02611abf6111fa565b8786866040518563ffffffff1660e01b8152600401611ae19493929190612a9d565b602060405180830381600087803b158015611afb57600080fd5b505af1925050508015611b2c57506040513d601f19601f82011682018060405250810190611b299190612652565b60015b611baf573d8060008114611b5c576040519150601f19603f3d011682016040523d82523d6000602084013e611b61565b606091505b50600081511415611ba7576040517f08c379a0000000000000000000000000000000000000000000000000000000008152600401611b9e90612b46565b60405180910390fd5b805181602001fd5b63150b7a0260e01b7bffffffffffffffffffffffffffffffffffffffffffffffffffffffff1916817bffffffffffffffffffffffffffffffffffffffffffffffffffffffff191614915050611c04565b600190505b949350505050565b60007f01ffc9a7000000000000000000000000000000000000000000000000000000007bffffffffffffffffffffffffffffffffffffffffffffffffffffffff1916827bffffffffffffffffffffffffffffffffffffffffffffffffffffffff1916149050919050565b600073ffffffffffffffffffffffffffffffffffffffff168273ffffffffffffffffffffffffffffffffffffffff161415611ce6576040517f08c379a0000000000000000000000000000000000000000000000000000000008152600401611cdd90612c66565b60405180910390fd5b611cef8161118e565b15611d2f576040517f08c379a0000000000000000000000000000000000000000000000000000000008152600401611d2690612b86565b60405180910390fd5b611d3b60008383611a65565b6001600360008473ffffffffffffffffffffffffffffffffffffffff1673ffffffffffffffffffffffffffffffffffffffff1681526020019081526020016000206000828254611d8b9190612e6b565b92505081905550816002600083815260200190815260200160002060006101000a81548173ffffffffffffffffffffffffffffffffffffffff021916908373ffffffffffffffffffffffffffffffffffffffff160217905550808273ffffffffffffffffffffffffffffffffffffffff16600073ffffffffffffffffffffffffffffffffffffffff167fddf252ad1be2c89b69c2b068fc378daa952ba7f163c4a11628f55a4df523b3ef60405160405180910390a45050565b611e4f838383611f6b565b600073ffffffffffffffffffffffffffffffffffffffff168373ffffffffffffffffffffffffffffffffffffffff161415611e9257611e8d81611f70565b611ed1565b8173ffffffffffffffffffffffffffffffffffffffff168373ffffffffffffffffffffffffffffffffffffffff1614611ed057611ecf8382611fb9565b5b5b600073ffffffffffffffffffffffffffffffffffffffff168273ffffffffffffffffffffffffffffffffffffffff161415611f1457611f0f81612126565b611f53565b8273ffffffffffffffffffffffffffffffffffffffff168273ffffffffffffffffffffffffffffffffffffffff1614611f5257611f5182826121f7565b5b5b505050565b600080823b905060008111915050919050565b505050565b6008805490506009600083815260200190815260200160002081905550600881908060018154018082558091505060019003906000526020600020016000909190919091505550565b60006001611fc684610afd565b611fd09190612ef2565b90506000600760008481526020019081526020016000205490508181146120b5576000600660008673ffffffffffffffffffffffffffffffffffffffff1673ffffffffffffffffffffffffffffffffffffffff168152602001908152602001600020600084815260200190815260200160002054905080600660008773ffffffffffffffffffffffffffffffffffffffff1673ffffffffffffffffffffffffffffffffffffffff168152602001908152602001600020600084815260200190815260200160002081905550816007600083815260200190815260200160002081905550505b6007600084815260200190815260200160002060009055600660008573ffffffffffffffffffffffffffffffffffffffff1673ffffffffffffffffffffffffffffffffffffffff16815260200190815260200160002060008381526020019081526020016000206000905550505050565b6000600160088054905061213a9190612ef2565b905060006009600084815260200190815260200160002054905060006008838154811061216a57612169613175565b5b90600052602060002001549050806008838154811061218c5761218b613175565b5b9060005260206000200181905550816009600083815260200190815260200160002081905550600960008581526020019081526020016000206000905560088054806121db576121da613146565b5b6001900381819060005260206000200160009055905550505050565b600061220283610afd565b905081600660008573ffffffffffffffffffffffffffffffffffffffff1673ffffffffffffffffffffffffffffffffffffffff168152602001908152602001600020600083815260200190815260200160002081905550806007600084815260200190815260200160002081905550505050565b82805461228290612fdc565b90600052602060002090601f0160209004810192826122a457600085556122eb565b82601f106122bd57805160ff19168380011785556122eb565b828001600101855582156122eb579182015b828111156122ea5782518255916020019190600101906122cf565b5b5090506122f891906122fc565b5090565b5b808211156123155760008160009055506001016122fd565b5090565b600061232c61232784612dc6565b612da1565b905082815260208101848484011115612348576123476131d8565b5b612353848285612f9a565b509392505050565b600061236e61236984612df7565b612da1565b90508281526020810184848401111561238a576123896131d8565b5b612395848285612f9a565b509392505050565b6000813590506123ac81613717565b92915050565b6000813590506123c18161372e565b92915050565b6000813590506123d681613745565b92915050565b6000815190506123eb81613745565b92915050565b600082601f830112612406576124056131d3565b5b8135612416848260208601612319565b91505092915050565b600082601f830112612434576124336131d3565b5b813561244484826020860161235b565b91505092915050565b60008135905061245c8161375c565b92915050565b600060208284031215612478576124776131e2565b5b60006124868482850161239d565b91505092915050565b600080604083850312156124a6576124a56131e2565b5b60006124b48582860161239d565b92505060206124c58582860161239d565b9150509250929050565b6000806000606084860312156124e8576124e76131e2565b5b60006124f68682870161239d565b93505060206125078682870161239d565b92505060406125188682870161244d565b9150509250925092565b6000806000806080858703121561253c5761253b6131e2565b5b600061254a8782880161239d565b945050602061255b8782880161239d565b935050604061256c8782880161244d565b925050606085013567ffffffffffffffff81111561258d5761258c6131dd565b5b612599878288016123f1565b91505092959194509250565b600080604083850312156125bc576125bb6131e2565b5b60006125ca8582860161239d565b92505060206125db858286016123b2565b9150509250929050565b600080604083850312156125fc576125fb6131e2565b5b600061260a8582860161239d565b925050602061261b8582860161244d565b9150509250929050565b60006020828403121561263b5761263a6131e2565b5b6000612649848285016123c7565b91505092915050565b600060208284031215612668576126676131e2565b5b6000612676848285016123dc565b91505092915050565b600060208284031215612695576126946131e2565b5b600082013567ffffffffffffffff8111156126b3576126b26131dd565b5b6126bf8482850161241f565b91505092915050565b6000602082840312156126de576126dd6131e2565b5b60006126ec8482850161244d565b91505092915050565b6126fe81612f26565b82525050565b61270d81612f38565b82525050565b600061271e82612e28565b6127288185612e3e565b9350612738818560208601612fa9565b612741816131e7565b840191505092915050565b600061275782612e33565b6127618185612e4f565b9350612771818560208601612fa9565b61277a816131e7565b840191505092915050565b600061279082612e33565b61279a8185612e60565b93506127aa818560208601612fa9565b80840191505092915050565b60006127c3602b83612e4f565b91506127ce826131f8565b604082019050919050565b60006127e6603283612e4f565b91506127f182613247565b604082019050919050565b6000612809602683612e4f565b915061281482613296565b604082019050919050565b600061282c601c83612e4f565b9150612837826132e5565b602082019050919050565b600061284f602483612e4f565b915061285a8261330e565b604082019050919050565b6000612872601983612e4f565b915061287d8261335d565b602082019050919050565b6000612895602c83612e4f565b91506128a082613386565b604082019050919050565b60006128b8603883612e4f565b91506128c3826133d5565b604082019050919050565b60006128db602a83612e4f565b91506128e682613424565b604082019050919050565b60006128fe602983612e4f565b915061290982613473565b604082019050919050565b6000612921602083612e4f565b915061292c826134c2565b602082019050919050565b6000612944602c83612e4f565b915061294f826134eb565b604082019050919050565b6000612967602083612e4f565b91506129728261353a565b602082019050919050565b600061298a602983612e4f565b915061299582613563565b604082019050919050565b60006129ad602f83612e4f565b91506129b8826135b2565b604082019050919050565b60006129d0601783612e4f565b91506129db82613601565b602082019050919050565b60006129f3602183612e4f565b91506129fe8261362a565b604082019050919050565b6000612a16603183612e4f565b9150612a2182613679565b604082019050919050565b6000612a39602c83612e4f565b9150612a44826136c8565b604082019050919050565b612a5881612f90565b82525050565b6000612a6a8285612785565b9150612a768284612785565b91508190509392505050565b6000602082019050612a9760008301846126f5565b92915050565b6000608082019050612ab260008301876126f5565b612abf60208301866126f5565b612acc6040830185612a4f565b8181036060830152612ade8184612713565b905095945050505050565b6000602082019050612afe6000830184612704565b92915050565b60006020820190508181036000830152612b1e818461274c565b905092915050565b60006020820190508181036000830152612b3f816127b6565b9050919050565b60006020820190508181036000830152612b5f816127d9565b9050919050565b60006020820190508181036000830152612b7f816127fc565b9050919050565b60006020820190508181036000830152612b9f8161281f565b9050919050565b60006020820190508181036000830152612bbf81612842565b9050919050565b60006020820190508181036000830152612bdf81612865565b9050919050565b60006020820190508181036000830152612bff81612888565b9050919050565b60006020820190508181036000830152612c1f816128ab565b9050919050565b60006020820190508181036000830152612c3f816128ce565b9050919050565b60006020820190508181036000830152612c5f816128f1565b9050919050565b60006020820190508181036000830152612c7f81612914565b9050919050565b60006020820190508181036000830152612c9f81612937565b9050919050565b60006020820190508181036000830152612cbf8161295a565b9050919050565b60006020820190508181036000830152612cdf8161297d565b9050919050565b60006020820190508181036000830152612cff816129a0565b9050919050565b60006020820190508181036000830152612d1f816129c3565b9050919050565b60006020820190508181036000830152612d3f816129e6565b9050919050565b60006020820190508181036000830152612d5f81612a09565b9050919050565b60006020820190508181036000830152612d7f81612a2c565b9050919050565b6000602082019050612d9b6000830184612a4f565b92915050565b6000612dab612dbc565b9050612db7828261300e565b919050565b6000604051905090565b600067ffffffffffffffff821115612de157612de06131a4565b5b612dea826131e7565b9050602081019050919050565b600067ffffffffffffffff821115612e1257612e116131a4565b5b612e1b826131e7565b9050602081019050919050565b600081519050919050565b600081519050919050565b600082825260208201905092915050565b600082825260208201905092915050565b600081905092915050565b6000612e7682612f90565b9150612e8183612f90565b9250827fffffffffffffffffffffffffffffffffffffffffffffffffffffffffffffffff03821115612eb657612eb56130b9565b5b828201905092915050565b6000612ecc82612f90565b9150612ed783612f90565b925082612ee757612ee66130e8565b5b828204905092915050565b6000612efd82612f90565b9150612f0883612f90565b925082821015612f1b57612f1a6130b9565b5b828203905092915050565b6000612f3182612f70565b9050919050565b60008115159050919050565b60007fffffffff0000000000000000000000000000000000000000000000000000000082169050919050565b600073ffffffffffffffffffffffffffffffffffffffff82169050919050565b6000819050919050565b82818337600083830152505050565b60005b83811015612fc7578082015181840152602081019050612fac565b83811115612fd6576000848401525b50505050565b60006002820490506001821680612ff457607f821691505b6020821081141561300857613007613117565b5b50919050565b613017826131e7565b810181811067ffffffffffffffff82111715613036576130356131a4565b5b80604052505050565b600061304a82612f90565b91507fffffffffffffffffffffffffffffffffffffffffffffffffffffffffffffffff82141561307d5761307c6130b9565b5b600182019050919050565b600061309382612f90565b915061309e83612f90565b9250826130ae576130ad6130e8565b5b828206905092915050565b7f4e487b7100000000000000000000000000000000000000000000000000000000600052601160045260246000fd5b7f4e487b7100000000000000000000000000000000000000000000000000000000600052601260045260246000fd5b7f4e487b7100000000000000000000000000000000000000000000000000000000600052602260045260246000fd5b7f4e487b7100000000000000000000000000000000000000000000000000000000600052603160045260246000fd5b7f4e487b7100000000000000000000000000000000000000000000000000000000600052603260045260246000fd5b7f4e487b7100000000000000000000000000000000000000000000000000000000600052604160045260246000fd5b600080fd5b600080fd5b600080fd5b600080fd5b6000601f19601f8301169050919050565b7f455243373231456e756d657261626c653a206f776e657220696e646578206f7560008201527f74206f6620626f756e6473000000000000000000000000000000000000000000602082015250565b7f4552433732313a207472616e7366657220746f206e6f6e20455243373231526560008201527f63656976657220696d706c656d656e7465720000000000000000000000000000602082015250565b7f4f776e61626c653a206e6577206f776e657220697320746865207a65726f206160008201527f6464726573730000000000000000000000000000000000000000000000000000602082015250565b7f4552433732313a20746f6b656e20616c7265616479206d696e74656400000000600082015250565b7f4552433732313a207472616e7366657220746f20746865207a65726f2061646460008201527f7265737300000000000000000000000000000000000000000000000000000000602082015250565b7f4552433732313a20617070726f766520746f2063616c6c657200000000000000600082015250565b7f4552433732313a206f70657261746f7220717565727920666f72206e6f6e657860008201527f697374656e7420746f6b656e0000000000000000000000000000000000000000602082015250565b7f4552433732313a20617070726f76652063616c6c6572206973206e6f74206f7760008201527f6e6572206e6f7220617070726f76656420666f7220616c6c0000000000000000602082015250565b7f4552433732313a2062616c616e636520717565727920666f7220746865207a6560008201527f726f206164647265737300000000000000000000000000000000000000000000602082015250565b7f4552433732313a206f776e657220717565727920666f72206e6f6e657869737460008201527f656e7420746f6b656e0000000000000000000000000000000000000000000000602082015250565b7f4552433732313a206d696e7420746f20746865207a65726f2061646472657373600082015250565b7f4552433732313a20617070726f76656420717565727920666f72206e6f6e657860008201527f697374656e7420746f6b656e0000000000000000000000000000000000000000602082015250565b7f4f776e61626c653a2063616c6c6572206973206e6f7420746865206f776e6572600082015250565b7f4552433732313a207472616e73666572206f6620746f6b656e2074686174206960008201527f73206e6f74206f776e0000000000000000000000000000000000000000000000602082015250565b7f4552433732314d657461646174613a2055524920717565727920666f72206e6f60008201527f6e6578697374656e7420746f6b656e0000000000000000000000000000000000602082015250565b7f445354783a20616c6c20746f6b656e73206d696e746564000000000000000000600082015250565b7f4552433732313a20617070726f76616c20746f2063757272656e74206f776e6560008201527f7200000000000000000000000000000000000000000000000000000000000000602082015250565b7f4552433732313a207472616e736665722063616c6c6572206973206e6f74206f60008201527f776e6572206e6f7220617070726f766564000000000000000000000000000000602082015250565b7f455243373231456e756d657261626c653a20676c6f62616c20696e646578206f60008201527f7574206f6620626f756e64730000000000000000000000000000000000000000602082015250565b61372081612f26565b811461372b57600080fd5b50565b61373781612f38565b811461374257600080fd5b50565b61374e81612f44565b811461375957600080fd5b50565b61376581612f90565b811461377057600080fd5b5056fea2646970667358221220cc527c0842df0c2655b8ad845b502a6fa69b89122579dbc83e1314a5ee10b5eb64736f6c63430008060033",
  "linkReferences": {},
  "deployedLinkReferences": {}
}